:100A4E0054656D70657261747572652000436F6ECA
:100A5E0074726F6C6C65720054656D706572617442
:100A6E007572653A004300436F6F6C696E67205371
:100A7E00797374656D006973206F6E2E0020546556
:040A8E006D703A004D
:030B2F00011100B1
:1008A400750803E4F5A0C2B0C2B1C2B5120AEE7F66
:1008B40001120B1B7BFF7A0A794E120AC97FC01200
:1008C4000B1B7BFF7A0A795B120AC97FD07E071261
:1008D4000A987F01120B1B7BFF7A0A7966120AC9F8
:1008E4007F8C120B1B803AD3E5129426748094807B
:1008F400404B7511017F01120B1B7F80120B1B7B78
:10090400FF7A0A7975120AC97FC0120B1B7BFF7A22
:100914000A7984120AC9D2B57BFF7A0A798B120A42
:10092400C9120B078F127E001209D17BFF7A0A7954
:1009340073120AC97FB87E0B120A9880AAC2B580C6
:010944009121
:100AEE007F01120B1B7F38120B1B7F0C120B1B7F0F
:090AFE0006120B1B7F80020B1B8A
:0A0B1B008FA0C2B0120A92C2B122EC
:0A0B25008FA0D2B0120A92C2B122D2
:100AC9008B098A0A890BAB09AA0AA90B12080060CB
:100AD90013050BE50B7002050A14F9120800FF1241
:050AE9000B2580E22254
:0409D1008E098F0AF2
:1009D500750B01C3E5096480948050107F2D120BBF
:1009E50025C3E4950AF50AE49509F509E50A4509DB
:1009F50070057F30120B25D3E50A9400E509648064
:100A050094804029AE09AF0A7C007D0A120819EDD1
:100A15002430FF740C250BF8A607AE09AF0A7C003D
:100A25007D0A1208198E098F0A050B80CA150BD38A
:100A3500E50B940074809480400E740C250BF8E649
:080A4500FF120B25150B80E7E1
:010A4D002286
:100B0700C2B2D2B4120A94D2B220B3FDC2B4120A4E
:030B170094AF9008
:010B1A0022B8
:060A9200D2B17F027E00DC
:100A9800D3EF9400EE6480948040257DFAEDD394E2
:100AA800007480948040031D80F37DFAEDD3940098
:100AB8007480948040031D80F3EF1F70D31E80D094
:010AC800220B
:03000000020945AD
:0C094500787FE4F6D8FD75811202098C61
:10080000BB010689828A83E0225002E722BBFE02F6
:09081000E32289828A83E4932229
:10081900C2D5EC30E709B2D5E4C39DFDE49CFCEEFA
:1008290030E715B2D5E4C39FFFE49EFE12084FC31B
:10083900E49DFDE49CFC800312084F30D507C3E416
:060849009FFFE49EFE2269
:100951000208A4E493A3F8E493A34003F68001F210
:1009610008DFF48029E493A3F85407240CC8C333A7
:10097100C4540F4420C8834004F456800146F6DF76
:10098100E4800B0102040810204080900B2FE47ECC
:10099100019360BCA3FF543F30E509541FFEE4936B
:1009A100A360010ECF54C025E060A840B8E493A332
:1009B100FAE493A3F8E493A3C8C582C8CAC583CA5D
:1009C100F0A3C8C582C8CAC583CADFE9DEE780BE15
:010B320000C2
:10084F00BC000BBE0029EF8DF084FFADF022E4CC8D
:10085F00F875F008EF2FFFEE33FEEC33FCEE9DEC56
:10086F00984005FCEE9DFE0FD5F0E9E4CEFD22ED9C
:10087F00F8F5F0EE8420D21CFEADF075F008EF2FE6
:10088F00FFED33FD4007985006D5F0F222C398FDD7
:05089F000FD5F0EA2274
:00000001FF
